{
  "contractName": "SupplyChainTracker",
  "abi": [
    {
      "anonymous": false,
      "inputs": [
        {
          "indexed": false,
          "internalType": "string",
          "name": "id",
          "type": "string"
        },
        {
          "indexed": false,
          "internalType": "string",
          "name": "name",
          "type": "string"
        },
        {
          "indexed": false,
          "internalType": "address",
          "name": "manufacturer",
          "type": "address"
        }
      ],
      "name": "ProductAdded",
      "type": "event"
    },
    {
      "anonymous": false,
      "inputs": [
        {
          "indexed": false,
          "internalType": "string",
          "name": "id",
          "type": "string"
        },
        {
          "indexed": false,
          "internalType": "string",
          "name": "name",
          "type": "string"
        },
        {
          "indexed": false,
          "internalType": "uint256",
          "name": "price",
          "type": "uint256"
        },
        {
          "indexed": false,
          "internalType": "address",
          "name": "buyer",
          "type": "address"
        }
      ],
      "name": "ProductPurchased",
      "type": "event"
    },
    {
      "anonymous": false,
      "inputs": [
        {
          "indexed": false,
          "internalType": "string",
          "name": "id",
          "type": "string"
        },
        {
          "indexed": false,
          "internalType": "string",
          "name": "status",
          "type": "string"
        }
      ],
      "name": "ProductStatusUpdated",
      "type": "event"
    },
    {
      "anonymous": false,
      "inputs": [
        {
          "indexed": false,
          "internalType": "string",
          "name": "id",
          "type": "string"
        },
        {
          "indexed": false,
          "internalType": "address",
          "name": "from",
          "type": "address"
        },
        {
          "indexed": false,
          "internalType": "address",
          "name": "to",
          "type": "address"
        }
      ],
      "name": "ProductTransferred",
      "type": "event"
    },
    {
      "inputs": [
        {
          "internalType": "string",
          "name": "_id",
          "type": "string"
        },
        {
          "internalType": "string",
          "name": "_name",
          "type": "string"
        },
        {
          "internalType": "string",
          "name": "_batch",
          "type": "string"
        },
        {
          "internalType": "uint256",
          "name": "_price",
          "type": "uint256"
        },
        {
          "internalType": "string",
          "name": "_status",
          "type": "string"
        },
        {
          "internalType": "string",
          "name": "_ipfsHash",
          "type": "string"
        }
      ],
      "name": "addProduct",
      "outputs": [],
      "stateMutability": "nonpayable",
      "type": "function"
    },
    {
      "inputs": [
        {
          "internalType": "string",
          "name": "_id",
          "type": "string"
        }
      ],
      "name": "purchaseProduct",
      "outputs": [],
      "stateMutability": "payable",
      "type": "function",
      "payable": true
    },
    {
      "inputs": [
        {
          "internalType": "string",
          "name": "_id",
          "type": "string"
        },
        {
          "internalType": "address",
          "name": "_to",
          "type": "address"
        }
      ],
      "name": "transferProduct",
      "outputs": [],
      "stateMutability": "nonpayable",
      "type": "function"
    },
    {
      "inputs": [
        {
          "internalType": "string",
          "name": "_id",
          "type": "string"
        },
        {
          "internalType": "string",
          "name": "_status",
          "type": "string"
        }
      ],
      "name": "updateStatus",
      "outputs": [],
      "stateMutability": "nonpayable",
      "type": "function"
    },
    {
      "inputs": [
        {
          "internalType": "string",
          "name": "_id",
          "type": "string"
        }
      ],
      "name": "getProduct",
      "outputs": [
        {
          "internalType": "string",
          "name": "name",
          "type": "string"
        },
        {
          "internalType": "string",
          "name": "batch",
          "type": "string"
        },
        {
          "internalType": "address",
          "name": "manufacturer",
          "type": "address"
        },
        {
          "internalType": "address",
          "name": "holder",
          "type": "address"
        },
        {
          "internalType": "uint256",
          "name": "price",
          "type": "uint256"
        },
        {
          "internalType": "string",
          "name": "status",
          "type": "string"
        },
        {
          "internalType": "string",
          "name": "ipfsHash",
          "type": "string"
        },
        {
          "internalType": "address[]",
          "name": "history",
          "type": "address[]"
        },
        {
          "internalType": "bool",
          "name": "sold",
          "type": "bool"
        }
      ],
      "stateMutability": "view",
      "type": "function",
      "constant": true
    }
  ],
  "bytecode": "0x608060405234801561001057600080fd5b506119de806100206000396000f3fe60806040526004361061004a5760003560e01c806319f929261461004f5780631e1ad33c1461006b578063347047cc1461009457806368111cce146100bd57806390afcb9d14610102575b600080fd5b61006960048036038101906100649190610f44565b61012b565b005b34801561007757600080fd5b50610092600480360381019061008d9190611045565b61049c565b005b3480156100a057600080fd5b506100bb60048036038101906100b69190610fd9565b610731565b005b3480156100c957600080fd5b506100e460048036038101906100df9190610f44565b610855565b6040516100f999989796959493929190611580565b60405180910390f35b34801561010e57600080fd5b5061012960048036038101906101249190610f85565b610c3d565b005b60018160405161013b9190611471565b908152602001604051809103902060009054906101000a900460ff16610196576040517f08c379a000000000000000000000000000000000000000000000000000000000815260040161018d90611683565b60405180910390fd5b600080826040516101a79190611471565b908152602001604051809103902090508060090160009054906101000a900460ff1615610209576040517f08c379a0000000000000000000000000000000000000000000000000000000008152600401610200906116a3565b60405180910390fd5b8060040160009054906101000a900473ffffffffffffffffffffffffffffffffffffffff1673ffffffffffffffffffffffffffffffffffffffff163373ffffffffffffffffffffffffffffffffffffffff16141561029c576040517f08c379a000000000000000000000000000000000000000000000000000000000815260040161029390611723565b60405180910390fd5b80600501543410156102e3576040517f08c379a00000000000000000000000000000000000000000000000000000000081526004016102da906116e3565b60405180910390fd5b60008160040160009054906101000a900473ffffffffffffffffffffffffffffffffffffffff169050338260040160006101000a81548173ffffffffffffffffffffffffffffffffffffffff021916908373ffffffffffffffffffffffffffffffffffffffff16021790555060018260090160006101000a81548160ff02191690831515021790555081600801339080600181540180825580915050600190039060005260206000200160009091909190916101000a81548173ffffffffffffffffffffffffffffffffffffffff021916908373ffffffffffffffffffffffffffffffffffffffff1602179055508073ffffffffffffffffffffffffffffffffffffffff166108fc349081150290604051600060405180830381858888f19350505050158015610417573d6000803e3d6000fd5b507f8b11bafc6c9be637b2ff86ae4819c6b543d542d8af89bf33756f6d6bb3bca76e83836001018460050154336040516104549493929190611630565b60405180910390a17f9b59ff059d6c04ad6bc0611444d658a2e1c70a894824b83b040b2aad6e14f01383823360405161048f93929190611488565b60405180910390a1505050565b6001866040516104ac9190611471565b908152602001604051809103902060009054906101000a900460ff1615610508576040517f08c379a00000000000000000000000000000000000000000000000000000000081526004016104ff90611703565b60405180910390fd5b600080876040516105199190611471565b9081526020016040518091039020905085816001019080519060200190610541929190610e0f565b508681600001908051906020019061055a929190610e0f565b5084816002019080519060200190610573929190610e0f565b50838160050181905550338160030160006101000a81548173ffffffffffffffffffffffffffffffffffffffff021916908373ffffffffffffffffffffffffffffffffffffffff160217905550338160040160006101000a81548173ffffffffffffffffffffffffffffffffffffffff021916908373ffffffffffffffffffffffffffffffffffffffff1602179055508281600601908051906020019061061b929190610e0f565b5081816007019080519060200190610634929190610e0f565b5060008160090160006101000a81548160ff02191690831515021790555080600801339080600181540180825580915050600190039060005260206000200160009091909190916101000a81548173ffffffffffffffffffffffffffffffffffffffff021916908373ffffffffffffffffffffffffffffffffffffffff160217905550600180886040516106c89190611471565b908152602001604051809103902060006101000a81548160ff0219169083151502179055507f6bb50ef6a506e9e67570b71c52bbd1d6c8d109554cf81e9108fb33e69dc085138787336040516107209392919061153b565b60405180910390a150505050505050565b813373ffffffffffffffffffffffffffffffffffffffff166000826040516107599190611471565b908152602001604051809103902060040160009054906101000a900473ffffffffffffffffffffffffffffffffffffffff1673ffffffffffffffffffffffffffffffffffffffff16146107e1576040517f08c379a00000000000000000000000000000000000000000000000000000000081526004016107d8906116c3565b60405180910390fd5b816000846040516107f29190611471565b90815260200160405180910390206006019080519060200190610816929190610e0f565b507f62f7ff77fd29d365844e8ba8542fff45d3f22cada9bf007bdc1dab706bb8bc248383604051610848929190611504565b60405180910390a1505050565b60608060008060006060806060600060018a6040516108749190611471565b908152602001604051809103902060009054906101000a900460ff166108cf576040517f08c379a00000000000000000000000000000000000000000000000000000000081526004016108c690611683565b60405180910390fd5b6000808b6040516108e09190611471565b9081526020016040518091039020905080600101816002018260030160009054906101000a900473ffffffffffffffffffffffffffffffffffffffff168360040160009054906101000a900473ffffffffffffffffffffffffffffffffffffffff1684600501548560060186600701876008018860090160009054906101000a900460ff16888054610971906118d9565b80601f016020809104026020016040519081016040528092919081815260200182805461099d906118d9565b80156109ea5780601f106109bf576101008083540402835291602001916109ea565b820191906000526020600020905b8154815290600101906020018083116109cd57829003601f168201915b505050505098508780546109fd906118d9565b80601f0160208091040260200160405190810160405280929190818152602001828054610a29906118d9565b8015610a765780601f10610a4b57610100808354040283529160200191610a76565b820191906000526020600020905b815481529060010190602001808311610a5957829003601f168201915b50505050509750838054610a89906118d9565b80601f0160208091040260200160405190810160405280929190818152602001828054610ab5906118d9565b8015610b025780601f10610ad757610100808354040283529160200191610b02565b820191906000526020600020905b815481529060010190602001808311610ae557829003601f168201915b50505050509350828054610b15906118d9565b80601f0160208091040260200160405190810160405280929190818152602001828054610b41906118d9565b8015610b8e5780601f10610b6357610100808354040283529160200191610b8e565b820191906000526020600020905b815481529060010190602001808311610b7157829003601f168201915b5050505050925081805480602002602001604051908101604052809291908181526020018280548015610c1657602002820191906000526020600020905b8160009054906101000a900473ffffffffffffffffffffffffffffffffffffffff1673ffffffffffffffffffffffffffffffffffffffff1681526020019060010190808311610bcc575b50505050509150995099509950995099509950995099509950509193959799909294969850565b813373ffffffffffffffffffffffffffffffffffffffff16600082604051610c659190611471565b908152602001604051809103902060040160009054906101000a900473ffffffffffffffffffffffffffffffffffffffff1673ffffffffffffffffffffffffffffffffffffffff1614610ced576040517f08c379a0000000000000000000000000000000000000000000000000000000008152600401610ce4906116c3565b60405180910390fd5b81600084604051610cfe9190611471565b908152602001604051809103902060040160006101000a81548173ffffffffffffffffffffffffffffffffffffffff021916908373ffffffffffffffffffffffffffffffffffffffff160217905550600083604051610d5d9190611471565b9081526020016040518091039020600801829080600181540180825580915050600190039060005260206000200160009091909190916101000a81548173ffffffffffffffffffffffffffffffffffffffff021916908373ffffffffffffffffffffffffffffffffffffffff1602179055507f9b59ff059d6c04ad6bc0611444d658a2e1c70a894824b83b040b2aad6e14f013833384604051610e02939291906114c6565b60405180910390a1505050565b828054610e1b906118d9565b90600052602060002090601f016020900481019282610e3d5760008555610e84565b82601f10610e5657805160ff1916838001178555610e84565b82800160010185558215610e84579182015b82811115610e83578251825591602001919060010190610e68565b5b509050610e919190610e95565b5090565b5b80821115610eae576000816000905550600101610e96565b5090565b6000610ec5610ec084611774565b611743565b905082815260208101848484011115610edd57600080fd5b610ee8848285611897565b509392505050565b600081359050610eff8161197a565b92915050565b600082601f830112610f1657600080fd5b8135610f26848260208601610eb2565b91505092915050565b600081359050610f3e81611991565b92915050565b600060208284031215610f5657600080fd5b600082013567ffffffffffffffff811115610f7057600080fd5b610f7c84828501610f05565b91505092915050565b60008060408385031215610f9857600080fd5b600083013567ffffffffffffffff811115610fb257600080fd5b610fbe85828601610f05565b9250506020610fcf85828601610ef0565b9150509250929050565b60008060408385031215610fec57600080fd5b600083013567ffffffffffffffff81111561100657600080fd5b61101285828601610f05565b925050602083013567ffffffffffffffff81111561102f57600080fd5b61103b85828601610f05565b9150509250929050565b60008060008060008060c0878903121561105e57600080fd5b600087013567ffffffffffffffff81111561107857600080fd5b61108489828a01610f05565b965050602087013567ffffffffffffffff8111156110a157600080fd5b6110ad89828a01610f05565b955050604087013567ffffffffffffffff8111156110ca57600080fd5b6110d689828a01610f05565b94505060606110e789828a01610f2f565b935050608087013567ffffffffffffffff81111561110457600080fd5b61111089828a01610f05565b92505060a087013567ffffffffffffffff81111561112d57600080fd5b61113989828a01610f05565b9150509295509295509295565b6000611152838361116d565b60208301905092915050565b61116781611861565b82525050565b61117681611819565b82525050565b61118581611819565b82525050565b6000611196826117c9565b6111a081856117ec565b93506111ab836117a4565b8060005b838110156111dc5781516111c38882611146565b97506111ce836117df565b9250506001810190506111af565b5085935050505092915050565b6111f28161182b565b82525050565b6000611203826117d4565b61120d81856117fd565b935061121d8185602086016118a6565b61122681611969565b840191505092915050565b600061123c826117d4565b611246818561180e565b93506112568185602086016118a6565b80840191505092915050565b6000815461126f816118d9565b61127981866117fd565b9450600182166000811461129457600181146112a6576112d9565b60ff19831686526020860193506112d9565b6112af856117b4565b60005b838110156112d1578154818901526001820191506020810190506112b2565b808801955050505b50505092915050565b60006112ef6016836117fd565b91507f50726f6475637420646f6573206e6f74206578697374000000000000000000006000830152602082019050919050565b600061132f6014836117fd565b91507f50726f6475637420616c726561647920736f6c640000000000000000000000006000830152602082019050919050565b600061136f6012836117fd565b91507f4e6f742070726f6475637420686f6c64657200000000000000000000000000006000830152602082019050919050565b60006113af6017836117fd565b91507f496e73756666696369656e742045746865722073656e740000000000000000006000830152602082019050919050565b60006113ef6016836117fd565b91507f50726f6475637420616c726561647920657869737473000000000000000000006000830152602082019050919050565b600061142f601b836117fd565b91507f43616e6e6f742062757920796f7572206f776e2070726f6475637400000000006000830152602082019050919050565b61146b81611857565b82525050565b600061147d8284611231565b915081905092915050565b600060608201905081810360008301526114a281866111f8565b90506114b1602083018561115e565b6114be604083018461117c565b949350505050565b600060608201905081810360008301526114e081866111f8565b90506114ef602083018561117c565b6114fc604083018461117c565b949350505050565b6000604082019050818103600083015261151e81856111f8565b9050818103602083015261153281846111f8565b90509392505050565b6000606082019050818103600083015261155581866111f8565b9050818103602083015261156981856111f8565b9050611578604083018461117c565b949350505050565b600061012082019050818103600083015261159b818c6111f8565b905081810360208301526115af818b6111f8565b90506115be604083018a61117c565b6115cb606083018961117c565b6115d86080830188611462565b81810360a08301526115ea81876111f8565b905081810360c08301526115fe81866111f8565b905081810360e0830152611612818561118b565b90506116226101008301846111e9565b9a9950505050505050505050565b6000608082019050818103600083015261164a81876111f8565b9050818103602083015261165e8186611262565b905061166d6040830185611462565b61167a606083018461117c565b95945050505050565b6000602082019050818103600083015261169c816112e2565b9050919050565b600060208201905081810360008301526116bc81611322565b9050919050565b600060208201905081810360008301526116dc81611362565b9050919050565b600060208201905081810360008301526116fc816113a2565b9050919050565b6000602082019050818103600083015261171c816113e2565b9050919050565b6000602082019050818103600083015261173c81611422565b9050919050565b6000604051905081810181811067ffffffffffffffff8211171561176a5761176961193a565b5b8060405250919050565b600067ffffffffffffffff82111561178f5761178e61193a565b5b601f19601f8301169050602081019050919050565b6000819050602082019050919050565b60008190508160005260206000209050919050565b600081519050919050565b600081519050919050565b6000602082019050919050565b600082825260208201905092915050565b600082825260208201905092915050565b600081905092915050565b600061182482611837565b9050919050565b60008115159050919050565b600073ffffffffffffffffffffffffffffffffffffffff82169050919050565b6000819050919050565b600061186c82611873565b9050919050565b600061187e82611885565b9050919050565b600061189082611837565b9050919050565b82818337600083830152505050565b60005b838110156118c45780820151818401526020810190506118a9565b838111156118d3576000848401525b50505050565b600060028204905060018216806118f157607f821691505b602082108114156119055761190461190b565b5b50919050565b7f4e487b7100000000000000000000000000000000000000000000000000000000600052602260045260246000fd5b7f4e487b7100000000000000000000000000000000000000000000000000000000600052604160045260246000fd5b6000601f19601f8301169050919050565b61198381611819565b811461198e57600080fd5b50565b61199a81611857565b81146119a557600080fd5b5056fea2646970667358221220bc86156e3fca79f5a413fbf6e00640da83232e300dc46d281ced8309086acd5b64736f6c63430008000033",
  "immutableReferences": {},
  "source": "// SPDX-License-Identifier: MIT\r\npragma solidity ^0.8.0;\r\n\r\ncontract SupplyChainTracker {\r\n\r\n    struct Product {\r\n        string id;\r\n        string name;\r\n        string batch;\r\n        address payable manufacturer;\r\n        address payable currentHolder;\r\n        uint price;\r\n        string status;\r\n        string ipfsHash; // hash to off-chain docs\r\n        address[] history;\r\n        bool sold;\r\n    }\r\n\r\n    mapping(string => Product) private products; // id => Product\r\n    mapping(string => bool) private exists;\r\n\r\n    event ProductAdded(string id, string name, address manufacturer);\r\n    event ProductTransferred(string id, address from, address to);\r\n    event ProductStatusUpdated(string id, string status);\r\n    event ProductPurchased(string id, string name, uint price, address buyer);\r\n\r\n    modifier onlyHolder(string memory _id) {\r\n        require(products[_id].currentHolder == msg.sender, \"Not product holder\");\r\n        _;\r\n    }\r\n\r\n    function addProduct(\r\n        string memory _id,\r\n        string memory _name,\r\n        string memory _batch,\r\n        uint _price,\r\n        string memory _status,\r\n        string memory _ipfsHash\r\n    ) public {\r\n        require(!exists[_id], \"Product already exists\");\r\n\r\n        Product storage newProduct = products[_id];\r\n        newProduct.name = _name;\r\n        newProduct.id = _id;\r\n        newProduct.batch = _batch;\r\n        newProduct.price = _price;\r\n        newProduct.manufacturer = payable(msg.sender);  // Cast msg.sender to address payable\r\n        newProduct.currentHolder = payable(msg.sender);  // Cast msg.sender to address payable\r\n        newProduct.status = _status;\r\n        newProduct.ipfsHash = _ipfsHash;\r\n        newProduct.sold = false;\r\n        newProduct.history.push(msg.sender);\r\n\r\n        exists[_id] = true;\r\n\r\n        emit ProductAdded(_id, _name, msg.sender);\r\n    }\r\n\r\n    function purchaseProduct(string memory _id) public payable {\r\n        require(exists[_id], \"Product does not exist\");\r\n\r\n        Product storage p = products[_id];\r\n        require(!p.sold, \"Product already sold\");\r\n        require(msg.sender != p.currentHolder, \"Cannot buy your own product\");\r\n        require(msg.value >= p.price, \"Insufficient Ether sent\");\r\n\r\n        address payable seller = p.currentHolder;\r\n\r\n        // Transfer ownership\r\n        p.currentHolder = payable(msg.sender);  // Cast msg.sender to address payable\r\n        p.sold = true;\r\n        p.history.push(msg.sender);\r\n\r\n        // Transfer Ether to seller\r\n        seller.transfer(msg.value);\r\n\r\n        emit ProductPurchased(_id, p.name, p.price, msg.sender);\r\n        emit ProductTransferred(_id, seller, msg.sender);\r\n    }\r\n\r\n    function transferProduct(string memory _id, address _to)\r\n        public\r\n        onlyHolder(_id)\r\n    {\r\n        products[_id].currentHolder = payable(_to);  // Cast _to to address payable\r\n        products[_id].history.push(_to);\r\n\r\n        emit ProductTransferred(_id, msg.sender, _to);\r\n    }\r\n\r\n    function updateStatus(string memory _id, string memory _status)\r\n        public\r\n        onlyHolder(_id)\r\n    {\r\n        products[_id].status = _status;\r\n        emit ProductStatusUpdated(_id, _status);\r\n    }\r\n\r\n    function getProduct(string memory _id)\r\n        public\r\n        view\r\n        returns (\r\n            string memory name,\r\n            string memory batch,\r\n            address manufacturer,\r\n            address holder,\r\n            uint price,\r\n            string memory status,\r\n            string memory ipfsHash,\r\n            address[] memory history,\r\n            bool sold\r\n        )\r\n    {\r\n        require(exists[_id], \"Product does not exist\");\r\n        Product storage p = products[_id];\r\n        return (\r\n            p.name,\r\n            p.batch,\r\n            p.manufacturer,\r\n            p.currentHolder,\r\n            p.price,\r\n            p.status,\r\n            p.ipfsHash,\r\n            p.history,\r\n            p.sold\r\n        );\r\n    }\r\n}\r\n",
  "sourcePath": "C:\\Users\\assas\\Music\\marketplace\\contracts\\SupplyChainTracker.sol",
  "compiler": {
    "name": "solc",
    "version": "0.8.0+commit.c7dfd78e.Emscripten.clang"
  },
  "schemaVersion": "3.4.16",
  "updatedAt": "2025-05-10T08:27:42.037Z",
  "networkType": "ethereum",
  "devdoc": {
    "kind": "dev",
    "methods": {},
    "version": 1
  },
  "userdoc": {
    "kind": "user",
    "methods": {},
    "version": 1
  }
}